{
  "_format": "hh-sol-artifact-1",
  "contractName": "NeonRoulette",
  "sourceName": "contracts/game/NeonRoulette.sol",
  "abi": [
    {
      "inputs": [
        {
          "internalType": "address",
          "name": "_vrfCoordinator",
          "type": "address"
        },
        {
          "internalType": "address",
          "name": "_House",
          "type": "address"
        }
      ],
      "stateMutability": "nonpayable",
      "type": "constructor"
    },
    {
      "inputs": [],
      "name": "BetIsPending",
      "type": "error"
    },
    {
      "inputs": [],
      "name": "BetLengthNotInRange",
      "type": "error"
    },
    {
      "inputs": [],
      "name": "GameIsNotLive",
      "type": "error"
    },
    {
      "inputs": [],
      "name": "HouseUnapprovedToken",
      "type": "error"
    },
    {
      "inputs": [],
      "name": "InvalidAddress",
      "type": "error"
    },
    {
      "inputs": [],
      "name": "NotPassedRefundPeriod",
      "type": "error"
    },
    {
      "inputs": [
        {
          "internalType": "address",
          "name": "have",
          "type": "address"
        },
        {
          "internalType": "address",
          "name": "want",
          "type": "address"
        }
      ],
      "name": "OnlyCoordinatorCanFulfill",
      "type": "error"
    },
    {
      "inputs": [],
      "name": "SettledBet",
      "type": "error"
    },
    {
      "inputs": [],
      "name": "TokenIsPaused",
      "type": "error"
    },
    {
      "inputs": [],
      "name": "ZeroBet",
      "type": "error"
    },
    {
      "anonymous": false,
      "inputs": [
        {
          "indexed": true,
          "internalType": "uint256",
          "name": "betId",
          "type": "uint256"
        },
        {
          "indexed": true,
          "internalType": "address",
          "name": "player",
          "type": "address"
        },
        {
          "indexed": false,
          "internalType": "address",
          "name": "token",
          "type": "address"
        },
        {
          "indexed": false,
          "internalType": "uint256[]",
          "name": "betAmount",
          "type": "uint256[]"
        }
      ],
      "name": "BetPlaced",
      "type": "event"
    },
    {
      "anonymous": false,
      "inputs": [
        {
          "indexed": true,
          "internalType": "uint256",
          "name": "betId",
          "type": "uint256"
        },
        {
          "indexed": true,
          "internalType": "address",
          "name": "player",
          "type": "address"
        },
        {
          "indexed": false,
          "internalType": "address",
          "name": "token",
          "type": "address"
        },
        {
          "indexed": false,
          "internalType": "uint256",
          "name": "amount",
          "type": "uint256"
        }
      ],
      "name": "BetRefunded",
      "type": "event"
    },
    {
      "anonymous": false,
      "inputs": [
        {
          "indexed": true,
          "internalType": "uint256",
          "name": "betId",
          "type": "uint256"
        },
        {
          "indexed": true,
          "internalType": "address",
          "name": "player",
          "type": "address"
        },
        {
          "indexed": false,
          "internalType": "address",
          "name": "token",
          "type": "address"
        },
        {
          "indexed": false,
          "internalType": "uint256[]",
          "name": "betAmount",
          "type": "uint256[]"
        },
        {
          "indexed": false,
          "internalType": "uint256",
          "name": "outcome",
          "type": "uint256"
        },
        {
          "indexed": false,
          "internalType": "uint256",
          "name": "bounsOutcome",
          "type": "uint256"
        },
        {
          "indexed": false,
          "internalType": "uint256",
          "name": "winAmount",
          "type": "uint256"
        }
      ],
      "name": "BetSettled",
      "type": "event"
    },
    {
      "anonymous": false,
      "inputs": [
        {
          "indexed": true,
          "internalType": "address",
          "name": "previousOwner",
          "type": "address"
        },
        {
          "indexed": true,
          "internalType": "address",
          "name": "newOwner",
          "type": "address"
        }
      ],
      "name": "OwnershipTransferred",
      "type": "event"
    },
    {
      "anonymous": false,
      "inputs": [
        {
          "indexed": true,
          "internalType": "address",
          "name": "token",
          "type": "address"
        },
        {
          "indexed": false,
          "internalType": "uint16",
          "name": "houseEdge",
          "type": "uint16"
        }
      ],
      "name": "SetHouseEdge",
      "type": "event"
    },
    {
      "anonymous": false,
      "inputs": [
        {
          "indexed": false,
          "internalType": "uint16",
          "name": "refundDelay",
          "type": "uint16"
        }
      ],
      "name": "SetRefundPeriod",
      "type": "event"
    },
    {
      "inputs": [
        {
          "internalType": "uint256",
          "name": "",
          "type": "uint256"
        }
      ],
      "name": "bets",
      "outputs": [
        {
          "internalType": "address",
          "name": "player",
          "type": "address"
        },
        {
          "internalType": "address",
          "name": "token",
          "type": "address"
        },
        {
          "internalType": "uint256",
          "name": "outcome",
          "type": "uint256"
        },
        {
          "internalType": "uint256",
          "name": "bonusOutcome",
          "type": "uint256"
        },
        {
          "internalType": "bool",
          "name": "isSettled",
          "type": "bool"
        },
        {
          "internalType": "bool",
          "name": "isRefunded",
          "type": "bool"
        },
        {
          "internalType": "uint256",
          "name": "winAmount",
          "type": "uint256"
        },
        {
          "internalType": "uint256",
          "name": "placeBlockNumber",
          "type": "uint256"
        },
        {
          "internalType": "uint256",
          "name": "totalBetAmount",
          "type": "uint256"
        }
      ],
      "stateMutability": "view",
      "type": "function"
    },
    {
      "inputs": [],
      "name": "chainlinkConfig",
      "outputs": [
        {
          "internalType": "uint64",
          "name": "subId",
          "type": "uint64"
        },
        {
          "internalType": "uint32",
          "name": "callbackGasLimit",
          "type": "uint32"
        },
        {
          "internalType": "uint16",
          "name": "requestConfirmations",
          "type": "uint16"
        },
        {
          "internalType": "bytes32",
          "name": "keyHash",
          "type": "bytes32"
        }
      ],
      "stateMutability": "view",
      "type": "function"
    },
    {
      "inputs": [],
      "name": "gameIsLive",
      "outputs": [
        {
          "internalType": "bool",
          "name": "",
          "type": "bool"
        }
      ],
      "stateMutability": "view",
      "type": "function"
    },
    {
      "inputs": [
        {
          "internalType": "address",
          "name": "token",
          "type": "address"
        }
      ],
      "name": "getMaxBetAmount",
      "outputs": [
        {
          "internalType": "uint256",
          "name": "",
          "type": "uint256"
        }
      ],
      "stateMutability": "view",
      "type": "function"
    },
    {
      "inputs": [
        {
          "internalType": "address",
          "name": "token",
          "type": "address"
        }
      ],
      "name": "getMinBetAmount",
      "outputs": [
        {
          "internalType": "uint256",
          "name": "",
          "type": "uint256"
        }
      ],
      "stateMutability": "view",
      "type": "function"
    },
    {
      "inputs": [
        {
          "internalType": "contract IHouse",
          "name": "_House",
          "type": "address"
        }
      ],
      "name": "initHouse",
      "outputs": [],
      "stateMutability": "nonpayable",
      "type": "function"
    },
    {
      "inputs": [
        {
          "internalType": "uint16",
          "name": "_refundDelay",
          "type": "uint16"
        }
      ],
      "name": "initRefundDelay",
      "outputs": [],
      "stateMutability": "nonpayable",
      "type": "function"
    },
    {
      "inputs": [
        {
          "internalType": "address",
          "name": "token",
          "type": "address"
        },
        {
          "internalType": "uint16",
          "name": "houseEdge",
          "type": "uint16"
        }
      ],
      "name": "initToken",
      "outputs": [],
      "stateMutability": "nonpayable",
      "type": "function"
    },
    {
      "inputs": [
        {
          "internalType": "uint256",
          "name": "betId",
          "type": "uint256"
        }
      ],
      "name": "isPassedRefundPeriod",
      "outputs": [
        {
          "internalType": "bool",
          "name": "",
          "type": "bool"
        }
      ],
      "stateMutability": "view",
      "type": "function"
    },
    {
      "inputs": [],
      "name": "owner",
      "outputs": [
        {
          "internalType": "address",
          "name": "",
          "type": "address"
        }
      ],
      "stateMutability": "view",
      "type": "function"
    },
    {
      "inputs": [
        {
          "internalType": "address",
          "name": "token",
          "type": "address"
        },
        {
          "internalType": "uint256[]",
          "name": "betAmount",
          "type": "uint256[]"
        }
      ],
      "name": "placeBet",
      "outputs": [],
      "stateMutability": "nonpayable",
      "type": "function"
    },
    {
      "inputs": [
        {
          "internalType": "uint256",
          "name": "requestId",
          "type": "uint256"
        },
        {
          "internalType": "uint256[]",
          "name": "randomWords",
          "type": "uint256[]"
        }
      ],
      "name": "rawFulfillRandomWords",
      "outputs": [],
      "stateMutability": "nonpayable",
      "type": "function"
    },
    {
      "inputs": [
        {
          "internalType": "uint256",
          "name": "betId",
          "type": "uint256"
        }
      ],
      "name": "refundBet",
      "outputs": [],
      "stateMutability": "nonpayable",
      "type": "function"
    },
    {
      "inputs": [],
      "name": "refundDelay",
      "outputs": [
        {
          "internalType": "uint16",
          "name": "",
          "type": "uint16"
        }
      ],
      "stateMutability": "view",
      "type": "function"
    },
    {
      "inputs": [],
      "name": "renounceOwnership",
      "outputs": [],
      "stateMutability": "nonpayable",
      "type": "function"
    },
    {
      "inputs": [
        {
          "internalType": "uint64",
          "name": "subId",
          "type": "uint64"
        },
        {
          "internalType": "uint32",
          "name": "callbackGasLimit",
          "type": "uint32"
        },
        {
          "internalType": "uint16",
          "name": "requestConfirmations",
          "type": "uint16"
        },
        {
          "internalType": "bytes32",
          "name": "keyHash",
          "type": "bytes32"
        }
      ],
      "name": "setChainlinkConfig",
      "outputs": [],
      "stateMutability": "nonpayable",
      "type": "function"
    },
    {
      "inputs": [],
      "name": "toggleGameLive",
      "outputs": [],
      "stateMutability": "nonpayable",
      "type": "function"
    },
    {
      "inputs": [
        {
          "internalType": "address",
          "name": "token",
          "type": "address"
        }
      ],
      "name": "toggleTokenPuase",
      "outputs": [],
      "stateMutability": "nonpayable",
      "type": "function"
    },
    {
      "inputs": [
        {
          "internalType": "address",
          "name": "",
          "type": "address"
        }
      ],
      "name": "tokens",
      "outputs": [
        {
          "internalType": "uint64",
          "name": "pendingCount",
          "type": "uint64"
        },
        {
          "internalType": "uint16",
          "name": "houseEdge",
          "type": "uint16"
        },
        {
          "internalType": "bool",
          "name": "isPuased",
          "type": "bool"
        }
      ],
      "stateMutability": "view",
      "type": "function"
    },
    {
      "inputs": [
        {
          "internalType": "address",
          "name": "newOwner",
          "type": "address"
        }
      ],
      "name": "transferOwnership",
      "outputs": [],
      "stateMutability": "nonpayable",
      "type": "function"
    }
  ],
  "bytecode": "0x60c06040523480156200001157600080fd5b50604051620022bc380380620022bc833981016040819052620000349162000109565b8160088162000043336200009c565b6001600160a01b03908116608052600180546001600160a01b0319169382169390931790925563ffffffff1660a0526006805492909116600162ffff0160a01b0319909216919091176102a360ac1b1790555062000141565b600080546001600160a01b038381166001600160a01b0319831681178455604051919092169283917f8be0079c531659141344cd1fd0a4f28419497f9722a3daafe3b4186f6b6457e09190a35050565b80516001600160a01b03811681146200010457600080fd5b919050565b600080604083850312156200011d57600080fd5b6200012883620000ec565b91506200013860208401620000ec565b90509250929050565b60805160a05161214e6200016e60003960006118c201526000818161059301526105fb015261214e6000f3fe608060405234801561001057600080fd5b506004361061016c5760003560e01c8063715018a6116100cd578063d414d0c211610081578063e486033911610066578063e486033914610439578063f2fde38b146104b2578063f6b2a2f1146104c557600080fd5b8063d414d0c214610401578063e1fdb4b41461042657600080fd5b8063821bd103116100b2578063821bd103146103b35780638da5cb5b146103c65780639978609c146103ee57600080fd5b8063715018a6146103a35780637ab8686e146103ab57600080fd5b80633e602b4c11610124578063474c2f0a11610109578063474c2f0a146102f3578063653792df146103065780636a0e722c1461038057600080fd5b80633e602b4c146102a6578063412e8a5b146102e057600080fd5b806322af00fa1161015557806322af00fa146101ac57806326bcccbd146102805780633d32753c1461029357600080fd5b80630e274e77146101715780631fe543e314610197575b600080fd5b61018461017f366004611a87565b6104d8565b6040519081526020015b60405180910390f35b6101aa6101a5366004611ad3565b61057b565b005b6102226101ba366004611bbb565b60046020819052600091825260409091208054600182015460028301546003840154948401546005850154600686015460089096015473ffffffffffffffffffffffffffffffffffffffff958616979490951695929460ff8084169461010090940416929089565b6040805173ffffffffffffffffffffffffffffffffffffffff9a8b1681529990981660208a01529688019590955260608701939093529015156080860152151560a085015260c084015260e08301526101008201526101200161018e565b6101aa61028e366004611a87565b61063b565b6101aa6102a1366004611beb565b6106d7565b6006546102cd907501000000000000000000000000000000000000000000900461ffff1681565b60405161ffff909116815260200161018e565b6101aa6102ee366004611a87565b610774565b6101aa610301366004611c50565b6107e1565b6002546003546103479167ffffffffffffffff81169168010000000000000000820463ffffffff16916c01000000000000000000000000900461ffff169084565b6040805167ffffffffffffffff909516855263ffffffff909316602085015261ffff90911691830191909152606082015260800161018e565b61039361038e366004611bbb565b610da4565b604051901515815260200161018e565b6101aa610de9565b6101aa610dfd565b6101aa6103c1366004611cd8565b610e52565b60005460405173ffffffffffffffffffffffffffffffffffffffff909116815260200161018e565b6101aa6103fc366004611d0d565b610fe0565b6006546103939074010000000000000000000000000000000000000000900460ff1681565b6101aa610434366004611bbb565b61106a565b610487610447366004611a87565b60056020526000908152604090205467ffffffffffffffff81169068010000000000000000810461ffff16906a0100000000000000000000900460ff1683565b6040805167ffffffffffffffff909416845261ffff909216602084015215159082015260600161018e565b6101aa6104c0366004611a87565b6112ef565b6101846104d3366004611a87565b6113a6565b6006546040517f278b39de00000000000000000000000000000000000000000000000000000000815273ffffffffffffffffffffffffffffffffffffffff8381166004830152601b6024830152600092169063278b39de906044015b602060405180830381865afa158015610551573d6000803e3d6000fd5b505050506040513d601f19601f820116820180604052508101906105759190611d28565b92915050565b3373ffffffffffffffffffffffffffffffffffffffff7f0000000000000000000000000000000000000000000000000000000000000000161461062d576040517f1cf993f400000000000000000000000000000000000000000000000000000000815233600482015273ffffffffffffffffffffffffffffffffffffffff7f00000000000000000000000000000000000000000000000000000000000000001660248201526044015b60405180910390fd5b61063782826113ff565b5050565b6106436117c6565b73ffffffffffffffffffffffffffffffffffffffff8116610690576040517fe6c4247b00000000000000000000000000000000000000000000000000000000815260040160405180910390fd5b600680547fffffffffffffffffffffffff00000000000000000000000000000000000000001673ffffffffffffffffffffffffffffffffffffffff92909216919091179055565b6106df6117c6565b6002805461ffff9093166c01000000000000000000000000027fffffffffffffffffffffffffffffffffffff0000ffffffffffffffffffffffff63ffffffff90951668010000000000000000027fffffffffffffffffffffffffffffffffffffffff00000000000000000000000090941667ffffffffffffffff90961695909517929092179290921692909217909155600355565b61077c6117c6565b73ffffffffffffffffffffffffffffffffffffffff16600090815260056020526040902080547fffffffffffffffffffffffffffffffffffffffffff00ffffffffffffffffffff81166a01000000000000000000009182900460ff1615909102179055565b60065474010000000000000000000000000000000000000000900460ff16610835576040517f2239154400000000000000000000000000000000000000000000000000000000815260040160405180910390fd5b73ffffffffffffffffffffffffffffffffffffffff83166000908152600560205260409020546a0100000000000000000000900460ff16156108a3576040517f649815a500000000000000000000000000000000000000000000000000000000815260040160405180910390fd5b80602560ff8216146108e1576040517fbaa98b7500000000000000000000000000000000000000000000000000000000815260040160405180910390fd5b6006546040517fcbe230c300000000000000000000000000000000000000000000000000000000815273ffffffffffffffffffffffffffffffffffffffff86811660048301529091169063cbe230c390602401602060405180830381865afa158015610951573d6000803e3d6000fd5b505050506040513d601f19601f820116820180604052508101906109759190611d41565b6109ab576040517f53c7b4d900000000000000000000000000000000000000000000000000000000815260040160405180910390fd5b6000806109b7866113a6565b905060006109c4876104d8565b905060005b8460ff16811015610a405760008787838181106109e8576109e8611d63565b905060200201359050828111158015610a015750838110155b15610a2d57878783818110610a1857610a18611d63565b9050602002013585610a2a9190611dc1565b94505b5080610a3881611dd4565b9150506109c9565b5082600003610a7b576040517f6400ccd000000000000000000000000000000000000000000000000000000000815260040160405180910390fd5b6006546040517fef542e6a00000000000000000000000000000000000000000000000000000000815273ffffffffffffffffffffffffffffffffffffffff898116600483015233602483018190526044830187905292169063ef542e6a90606401600060405180830381600087803b158015610af657600080fd5b505af1158015610b0a573d6000803e3d6000fd5b505050506000610b18611847565b90506040518061014001604052808373ffffffffffffffffffffffffffffffffffffffff1681526020018a73ffffffffffffffffffffffffffffffffffffffff168152602001600081526020016000815260200160001515815260200160001515815260200160008152602001438152602001898980806020026020016040519081016040528093929190818152602001838360200280828437600092018290525093855250505060209182018890528381526004808352604091829020845181547fffffffffffffffffffffffff000000000000000000000000000000000000000090811673ffffffffffffffffffffffffffffffffffffffff928316178355868601516001840180549092169216919091179055918401516002830155606084015160038301556080840151908201805460a08601517fffffffffffffffffffffffffffffffffffffffffffffffffffffffffffff00009091169215157fffffffffffffffffffffffffffffffffffffffffffffffffffffffffffff00ff1692909217610100921515830217905560c0840151600583015560e0840151600683015583015180519192610cd592600785019290910190611a05565b50610120919091015160089091015573ffffffffffffffffffffffffffffffffffffffff89166000908152600560205260408120805467ffffffffffffffff1691610d1f83611e0c565b91906101000a81548167ffffffffffffffff021916908367ffffffffffffffff160217905550508173ffffffffffffffffffffffffffffffffffffffff16817fa21b188d1fe3612988e34f6a685c7abda8a877a0bf3036cc8cc9490e9a1e28b38b8b8b604051610d9193929190611e33565b60405180910390a3505050505050505050565b60068054600083815260046020526040812090920154610de1917501000000000000000000000000000000000000000000900461ffff1690611dc1565b431192915050565b610df16117c6565b610dfb600061192d565b565b610e056117c6565b600680547fffffffffffffffffffffff00ffffffffffffffffffffffffffffffffffffffff8116740100000000000000000000000000000000000000009182900460ff1615909102179055565b610e5a6117c6565b73ffffffffffffffffffffffffffffffffffffffff821660009081526005602052604090205467ffffffffffffffff1615610ec1576040517f6e2f2fa900000000000000000000000000000000000000000000000000000000815260040160405180910390fd5b73ffffffffffffffffffffffffffffffffffffffff8216600090815260056020526040902080547fffffffffffffffffffffffffffffffffffffffffffff0000ffffffffffffffff166801000000000000000061ffff84160217908190556a0100000000000000000000900460ff16610f8d5773ffffffffffffffffffffffffffffffffffffffff8216600090815260056020526040902080547fffffffffffffffffffffffffffffffffffffffffff00ffffffffffffffffffff166a01000000000000000000001790555b60405161ffff8216815273ffffffffffffffffffffffffffffffffffffffff8316907f7dfd3ecb8ac83242184c019f85ca408558f2ac0a5a19af6be2a4aee697eac8129060200160405180910390a25050565b610fe86117c6565b600680547fffffffffffffffffff0000ffffffffffffffffffffffffffffffffffffffffff16750100000000000000000000000000000000000000000061ffff8416908102919091179091556040519081527f20b9d53402d7e4a2ec82dd58118b6ef7d9643fe2ba44ee8188c7eaebf7d22c809060200160405180910390a150565b60008181526004602052604090206008810154600182015473ffffffffffffffffffffffffffffffffffffffff16816110cf576040517f6400ccd000000000000000000000000000000000000000000000000000000000815260040160405180910390fd5b600483015460ff161561110e576040517f54c26e1d00000000000000000000000000000000000000000000000000000000815260040160405180910390fd5b61111784610da4565b61114d576040517fe187d38600000000000000000000000000000000000000000000000000000000815260040160405180910390fd5b82546006546040517fc6ae7aff00000000000000000000000000000000000000000000000000000000815273ffffffffffffffffffffffffffffffffffffffff84811660048301529283166024820181905260448201869052929091169063c6ae7aff90606401600060405180830381600087803b1580156111ce57600080fd5b505af11580156111e2573d6000803e3d6000fd5b505050506004840180547fffffffffffffffffffffffffffffffffffffffffffffffffffffffffffff00001661010117905573ffffffffffffffffffffffffffffffffffffffff82166000908152600560205260408120805467ffffffffffffffff169161124f83611ea2565b91906101000a81548167ffffffffffffffff021916908367ffffffffffffffff160217905550508073ffffffffffffffffffffffffffffffffffffffff16857fb92b4d941c5e7ab1c1502eadc3a36c293994e8919117c01ab7f611d0b4c08ac284866040516112e092919073ffffffffffffffffffffffffffffffffffffffff929092168252602082015260400190565b60405180910390a35050505050565b6112f76117c6565b73ffffffffffffffffffffffffffffffffffffffff811661139a576040517f08c379a000000000000000000000000000000000000000000000000000000000815260206004820152602660248201527f4f776e61626c653a206e6577206f776e657220697320746865207a65726f206160448201527f64647265737300000000000000000000000000000000000000000000000000006064820152608401610624565b6113a38161192d565b50565b6006546040517ff6b2a2f100000000000000000000000000000000000000000000000000000000815273ffffffffffffffffffffffffffffffffffffffff8381166004830152600092169063f6b2a2f190602401610534565b600082815260046020526040902060088101548015806114285750600482015460ff1615156001145b156114335750505050565b60018201548254845160009273ffffffffffffffffffffffffffffffffffffffff90811692169083906025908890839061146f5761146f611d63565b60200260200101516114819190611f13565b90506000866007018054806020026020016040519081016040528092919081815260200182805480156114d357602002820191906000526020600020905b8154815260200190600101908083116114bf575b5050505050905060008183815181106114ee576114ee611d63565b60200260200101519050600080826000146116045760068b60018151811061151857611518611d63565b602002602001015161152a9190611f13565b9150601e60ff8316156115f0576000805b8460ff168110156115b35760258e611554836002611dc1565b8151811061156457611564611d63565b60200260200101516115769190611f13565b611581906002612047565b9150838216156115925760006115a0565b61159c8285611dc1565b9350835b50806115ab81611dd4565b91505061153b565b50826115c0886002612047565b166000036115db576115d3601b86612053565b9950896115e9565b6115e58286612053565b9950895b50506115fe565b6115fb601b85612053565b98505b50611609565b600097505b6000611615888a6119a2565b6006546040517fc3d424d100000000000000000000000000000000000000000000000000000000815273ffffffffffffffffffffffffffffffffffffffff8b811660048301528a81166024830152604482018e9052606482018490528c1515608483015292935091169063c3d424d19060a401600060405180830381600087803b1580156116a257600080fd5b505af11580156116b6573d6000803e3d6000fd5b505050506005808c0182905560028c0187905560038c0183905560048c0180547fffffffffffffffffffffffffffffffffffffffffffffffffffffffffffffff0016600117905573ffffffffffffffffffffffffffffffffffffffff8916600090815260209190915260408120805467ffffffffffffffff169161173983611ea2565b91906101000a81548167ffffffffffffffff021916908367ffffffffffffffff160217905550508673ffffffffffffffffffffffffffffffffffffffff168d7fcebd161cf6db1e09804d628db1f098bec797391b7f7155a221f4c588a8d9d8ba8a888a87876040516117af95949392919061206a565b60405180910390a350505050505050505050505050565b60005473ffffffffffffffffffffffffffffffffffffffff163314610dfb576040517f08c379a000000000000000000000000000000000000000000000000000000000815260206004820181905260248201527f4f776e61626c653a2063616c6c6572206973206e6f7420746865206f776e65726044820152606401610624565b6001546003546002546040517f5d3b1d30000000000000000000000000000000000000000000000000000000008152600481019290925267ffffffffffffffff811660248301526c01000000000000000000000000810461ffff16604483015268010000000000000000900463ffffffff90811660648301527f0000000000000000000000000000000000000000000000000000000000000000166084820152600091829173ffffffffffffffffffffffffffffffffffffffff90911690635d3b1d309060a4016020604051808303816000875af1158015610551573d6000803e3d6000fd5b6000805473ffffffffffffffffffffffffffffffffffffffff8381167fffffffffffffffffffffffff0000000000000000000000000000000000000000831681178455604051919092169283917f8be0079c531659141344cd1fd0a4f28419497f9722a3daafe3b4186f6b6457e09190a35050565b73ffffffffffffffffffffffffffffffffffffffff8216600090815260056020526040812054612710906119e69068010000000000000000900461ffff16826120e2565b6119f49061ffff1684612053565b6119fe9190612104565b9392505050565b828054828255906000526020600020908101928215611a40579160200282015b82811115611a40578251825591602001919060010190611a25565b50611a4c929150611a50565b5090565b5b80821115611a4c5760008155600101611a51565b73ffffffffffffffffffffffffffffffffffffffff811681146113a357600080fd5b600060208284031215611a9957600080fd5b81356119fe81611a65565b7f4e487b7100000000000000000000000000000000000000000000000000000000600052604160045260246000fd5b60008060408385031215611ae657600080fd5b8235915060208084013567ffffffffffffffff80821115611b0657600080fd5b818601915086601f830112611b1a57600080fd5b813581811115611b2c57611b2c611aa4565b8060051b6040517fffffffffffffffffffffffffffffffffffffffffffffffffffffffffffffffe0603f83011681018181108582111715611b6f57611b6f611aa4565b604052918252848201925083810185019189831115611b8d57600080fd5b938501935b82851015611bab57843584529385019392850192611b92565b8096505050505050509250929050565b600060208284031215611bcd57600080fd5b5035919050565b803561ffff81168114611be657600080fd5b919050565b60008060008060808587031215611c0157600080fd5b843567ffffffffffffffff81168114611c1957600080fd5b9350602085013563ffffffff81168114611c3257600080fd5b9250611c4060408601611bd4565b9396929550929360600135925050565b600080600060408486031215611c6557600080fd5b8335611c7081611a65565b9250602084013567ffffffffffffffff80821115611c8d57600080fd5b818601915086601f830112611ca157600080fd5b813581811115611cb057600080fd5b8760208260051b8501011115611cc557600080fd5b6020830194508093505050509250925092565b60008060408385031215611ceb57600080fd5b8235611cf681611a65565b9150611d0460208401611bd4565b90509250929050565b600060208284031215611d1f57600080fd5b6119fe82611bd4565b600060208284031215611d3a57600080fd5b5051919050565b600060208284031215611d5357600080fd5b815180151581146119fe57600080fd5b7f4e487b7100000000000000000000000000000000000000000000000000000000600052603260045260246000fd5b7f4e487b7100000000000000000000000000000000000000000000000000000000600052601160045260246000fd5b8082018082111561057557610575611d92565b60007fffffffffffffffffffffffffffffffffffffffffffffffffffffffffffffffff8203611e0557611e05611d92565b5060010190565b600067ffffffffffffffff808316818103611e2957611e29611d92565b6001019392505050565b73ffffffffffffffffffffffffffffffffffffffff841681526040602082015281604082015260007f07ffffffffffffffffffffffffffffffffffffffffffffffffffffffffffffff831115611e8857600080fd5b8260051b8085606085013791909101606001949350505050565b600067ffffffffffffffff821680611ebc57611ebc611d92565b7fffffffffffffffffffffffffffffffffffffffffffffffffffffffffffffffff0192915050565b7f4e487b7100000000000000000000000000000000000000000000000000000000600052601260045260246000fd5b600082611f2257611f22611ee4565b500690565b600181815b80851115611f8057817fffffffffffffffffffffffffffffffffffffffffffffffffffffffffffffffff04821115611f6657611f66611d92565b80851615611f7357918102915b93841c9390800290611f2c565b509250929050565b600082611f9757506001610575565b81611fa457506000610575565b8160018114611fba5760028114611fc457611fe0565b6001915050610575565b60ff841115611fd557611fd5611d92565b50506001821b610575565b5060208310610133831016604e8410600b8410161715612003575081810a610575565b61200d8383611f27565b807fffffffffffffffffffffffffffffffffffffffffffffffffffffffffffffffff0482111561203f5761203f611d92565b029392505050565b60006119fe8383611f88565b808202811582820484141761057557610575611d92565b600060a0820173ffffffffffffffffffffffffffffffffffffffff88168352602060a08185015281885180845260c086019150828a01935060005b818110156120c1578451835293830193918301916001016120a5565b50506040850197909752505050606081019290925260809091015292915050565b61ffff8281168282160390808211156120fd576120fd611d92565b5092915050565b60008261211357612113611ee4565b50049056fea2646970667358221220a51974d7fb21fbbb67dd899fb007d10a367e6bae9fa7cfc012a64b62c5cb58a764736f6c63430008110033",
  "linkReferences": {},
  "deployedLinkReferences": {}
}