{
  "_format": "hh-sol-artifact-1",
  "contractName": "Reward",
  "sourceName": "contracts/Reward.sol",
  "abi": [
    {
      "inputs": [
        {
          "internalType": "contract IERC20",
          "name": "_neon",
          "type": "address"
        }
      ],
      "stateMutability": "nonpayable",
      "type": "constructor"
    },
    {
      "anonymous": false,
      "inputs": [
        {
          "indexed": false,
          "internalType": "uint256",
          "name": "blockNumber",
          "type": "uint256"
        },
        {
          "indexed": false,
          "internalType": "address",
          "name": "claimer",
          "type": "address"
        },
        {
          "indexed": false,
          "internalType": "uint256",
          "name": "amount",
          "type": "uint256"
        },
        {
          "indexed": false,
          "internalType": "bytes32",
          "name": "merkleRoot",
          "type": "bytes32"
        }
      ],
      "name": "Claim",
      "type": "event"
    },
    {
      "anonymous": false,
      "inputs": [
        {
          "indexed": true,
          "internalType": "address",
          "name": "previousOwner",
          "type": "address"
        },
        {
          "indexed": true,
          "internalType": "address",
          "name": "newOwner",
          "type": "address"
        }
      ],
      "name": "OwnershipTransferred",
      "type": "event"
    },
    {
      "anonymous": false,
      "inputs": [
        {
          "indexed": false,
          "internalType": "uint256",
          "name": "blockNumber",
          "type": "uint256"
        },
        {
          "indexed": false,
          "internalType": "bytes32",
          "name": "merkleRoot",
          "type": "bytes32"
        }
      ],
      "name": "UpdateMerkleRoot",
      "type": "event"
    },
    {
      "inputs": [],
      "name": "_merkleRoot",
      "outputs": [
        {
          "internalType": "bytes32",
          "name": "",
          "type": "bytes32"
        }
      ],
      "stateMutability": "view",
      "type": "function"
    },
    {
      "inputs": [
        {
          "internalType": "address",
          "name": "claimer",
          "type": "address"
        },
        {
          "internalType": "uint256",
          "name": "amount",
          "type": "uint256"
        },
        {
          "internalType": "bytes32[]",
          "name": "merkleProof",
          "type": "bytes32[]"
        }
      ],
      "name": "canClaim",
      "outputs": [
        {
          "internalType": "bool",
          "name": "",
          "type": "bool"
        }
      ],
      "stateMutability": "view",
      "type": "function"
    },
    {
      "inputs": [
        {
          "internalType": "uint256",
          "name": "amount",
          "type": "uint256"
        },
        {
          "internalType": "bytes32[]",
          "name": "merkleProof",
          "type": "bytes32[]"
        }
      ],
      "name": "claim",
      "outputs": [],
      "stateMutability": "nonpayable",
      "type": "function"
    },
    {
      "inputs": [],
      "name": "getBalance",
      "outputs": [
        {
          "internalType": "uint256",
          "name": "",
          "type": "uint256"
        }
      ],
      "stateMutability": "view",
      "type": "function"
    },
    {
      "inputs": [
        {
          "internalType": "bytes32",
          "name": "",
          "type": "bytes32"
        },
        {
          "internalType": "address",
          "name": "",
          "type": "address"
        }
      ],
      "name": "isClaimed",
      "outputs": [
        {
          "internalType": "bool",
          "name": "",
          "type": "bool"
        }
      ],
      "stateMutability": "view",
      "type": "function"
    },
    {
      "inputs": [],
      "name": "neon",
      "outputs": [
        {
          "internalType": "contract IERC20",
          "name": "",
          "type": "address"
        }
      ],
      "stateMutability": "view",
      "type": "function"
    },
    {
      "inputs": [],
      "name": "owner",
      "outputs": [
        {
          "internalType": "address",
          "name": "",
          "type": "address"
        }
      ],
      "stateMutability": "view",
      "type": "function"
    },
    {
      "inputs": [],
      "name": "renounceOwnership",
      "outputs": [],
      "stateMutability": "nonpayable",
      "type": "function"
    },
    {
      "inputs": [
        {
          "internalType": "address",
          "name": "newOwner",
          "type": "address"
        }
      ],
      "name": "transferOwnership",
      "outputs": [],
      "stateMutability": "nonpayable",
      "type": "function"
    },
    {
      "inputs": [
        {
          "internalType": "bytes32",
          "name": "_newMerkleRoot",
          "type": "bytes32"
        }
      ],
      "name": "updateMerkleRoot",
      "outputs": [],
      "stateMutability": "nonpayable",
      "type": "function"
    }
  ],
  "bytecode": "0x60a060405234801561001057600080fd5b50604051610bcb380380610bcb83398101604081905261002f91610099565b61003833610049565b6001600160a01b03166080526100c9565b600080546001600160a01b038381166001600160a01b0319831681178455604051919092169283917f8be0079c531659141344cd1fd0a4f28419497f9722a3daafe3b4186f6b6457e09190a35050565b6000602082840312156100ab57600080fd5b81516001600160a01b03811681146100c257600080fd5b9392505050565b608051610ad96100f2600039600081816101bf01528181610212015261043b0152610ad96000f3fe608060405234801561001057600080fd5b50600436106100be5760003560e01c806384ef71fb11610076578063dc38bdb51161005b578063dc38bdb514610194578063f2fde38b146101a7578063fe57a12a146101ba57600080fd5b806384ef71fb146101175780638da5cb5b1461015557600080fd5b80632fc37ab2116100a75780632fc37ab2146100f35780634783f0ef146100fc578063715018a61461010f57600080fd5b806312065fe0146100c35780632f52ebb7146100de575b600080fd5b6100cb6101e1565b6040519081526020015b60405180910390f35b6100f16100ec3660046108ab565b610297565b005b6100cb60015481565b6100f161010a3660046108f7565b610551565b6100f161059a565b610145610125366004610939565b600260209081526000928352604080842090915290825290205460ff1681565b60405190151581526020016100d5565b60005473ffffffffffffffffffffffffffffffffffffffff165b60405173ffffffffffffffffffffffffffffffffffffffff90911681526020016100d5565b6101456101a2366004610965565b6105ae565b6100f16101b53660046109bf565b61061c565b61016f7f000000000000000000000000000000000000000000000000000000000000000081565b6040517f70a082310000000000000000000000000000000000000000000000000000000081523060048201526000907f000000000000000000000000000000000000000000000000000000000000000073ffffffffffffffffffffffffffffffffffffffff16906370a0823190602401602060405180830381865afa15801561026e573d6000803e3d6000fd5b505050506040513d601f19601f8201168201806040525081019061029291906109da565b905090565b600154600090815260026020908152604080832033845290915290205460ff1615610323576040517f08c379a000000000000000000000000000000000000000000000000000000000815260206004820152601060248201527f416c726561647920636c61696d65642e0000000000000000000000000000000060448201526064015b60405180910390fd5b61032f338484846105ae565b610395576040517f08c379a000000000000000000000000000000000000000000000000000000000815260206004820152601460248201527f4e6f207265776172647320746f20636c61696d2e000000000000000000000000604482015260640161031a565b8261039e6101e1565b1015610406576040517f08c379a000000000000000000000000000000000000000000000000000000000815260206004820152601260248201527f4e6f7420456e6f75676820526577617264730000000000000000000000000000604482015260640161031a565b6040517fa9059cbb000000000000000000000000000000000000000000000000000000008152336004820152602481018490527f000000000000000000000000000000000000000000000000000000000000000073ffffffffffffffffffffffffffffffffffffffff169063a9059cbb906044016020604051808303816000875af1158015610499573d6000803e3d6000fd5b505050506040513d601f19601f820116820180604052508101906104bd91906109f3565b50600180546000908152600260209081526040808320338085529083529281902080547fffffffffffffffffffffffffffffffffffffffffffffffffffffffffffffff001685179055925483514381529182019290925291820185905260608201527f93b47d3a37fa0335ba33bd427c54551e5ed2d9a489f77aabd3996d8f714609949060800160405180910390a1505050565b6105596106d3565b600181905560408051438152602081018390527f7d86e658726c3c2946bcd6b2d92109e3fe9aa8ed5de8252ee4b588c608b8f5ef910160405180910390a150565b6105a26106d3565b6105ac6000610754565b565b6040517fffffffffffffffffffffffffffffffffffffffff000000000000000000000000606086901b1660208201526034810184905260009081906054016040516020818303038152906040528051906020012090506106128484600154846107c9565b9695505050505050565b6106246106d3565b73ffffffffffffffffffffffffffffffffffffffff81166106c7576040517f08c379a000000000000000000000000000000000000000000000000000000000815260206004820152602660248201527f4f776e61626c653a206e6577206f776e657220697320746865207a65726f206160448201527f6464726573730000000000000000000000000000000000000000000000000000606482015260840161031a565b6106d081610754565b50565b60005473ffffffffffffffffffffffffffffffffffffffff1633146105ac576040517f08c379a000000000000000000000000000000000000000000000000000000000815260206004820181905260248201527f4f776e61626c653a2063616c6c6572206973206e6f7420746865206f776e6572604482015260640161031a565b6000805473ffffffffffffffffffffffffffffffffffffffff8381167fffffffffffffffffffffffff0000000000000000000000000000000000000000831681178455604051919092169283917f8be0079c531659141344cd1fd0a4f28419497f9722a3daafe3b4186f6b6457e09190a35050565b6000826107d78686856107e1565b1495945050505050565b600081815b84811015610824576108108287878481811061080457610804610a15565b9050602002013561082d565b91508061081c81610a44565b9150506107e6565b50949350505050565b6000818310610849576000828152602084905260409020610858565b60008381526020839052604090205b9392505050565b60008083601f84011261087157600080fd5b50813567ffffffffffffffff81111561088957600080fd5b6020830191508360208260051b85010111156108a457600080fd5b9250929050565b6000806000604084860312156108c057600080fd5b83359250602084013567ffffffffffffffff8111156108de57600080fd5b6108ea8682870161085f565b9497909650939450505050565b60006020828403121561090957600080fd5b5035919050565b803573ffffffffffffffffffffffffffffffffffffffff8116811461093457600080fd5b919050565b6000806040838503121561094c57600080fd5b8235915061095c60208401610910565b90509250929050565b6000806000806060858703121561097b57600080fd5b61098485610910565b935060208501359250604085013567ffffffffffffffff8111156109a757600080fd5b6109b38782880161085f565b95989497509550505050565b6000602082840312156109d157600080fd5b61085882610910565b6000602082840312156109ec57600080fd5b5051919050565b600060208284031215610a0557600080fd5b8151801515811461085857600080fd5b7f4e487b7100000000000000000000000000000000000000000000000000000000600052603260045260246000fd5b60007fffffffffffffffffffffffffffffffffffffffffffffffffffffffffffffffff8203610a9c577f4e487b7100000000000000000000000000000000000000000000000000000000600052601160045260246000fd5b506001019056fea26469706673582212203489c65c233f0cd918713d17b643433f2dc71d6bea327cd197ad50f348bde95764736f6c63430008110033",
  "linkReferences": {},
  "deployedLinkReferences": {}
}